:020000040800F2
:10000000100700208901000817100008BF0E000823
:1000100015100008F302000813110008000000008A
:100020000000000000000000000000001B1000089D
:10003000F502000800000000191000081D1000085B
:10004000A3010008A3010008A3010008A301000800
:10005000A3010008A3010008A3010008A3010008F0
:10006000A3010008A3010008A3010008A3010008E0
:10007000A3010008A3010008A3010008A3010008D0
:10008000A3010008A3010008A3010008A3010008C0
:10009000A3010008A3010008A3010008A3010008B0
:1000A000A3010008A3010008A3010008A3010008A0
:1000B00081100008A3010008A3010008A3010008A3
:1000C000A3010008A3010008A3010008A301000880
:1000D000A3010008A3010008A3010008A301000870
:1000E000F7020008A3010008A301000800F002F8CD
:1000F00000F03AF80AA090E8000C82448344AAF188
:100100000107DA4501D100F02FF8AFF2090EBAE885
:100110000F0013F0010F18BFFB1A43F0010318473B
:100120002812000048120000103A24BF78C878C195
:10013000FAD8520724BF30C830C144BF04680C60ED
:10014000704700000023002400250026103A28BF35
:1001500078C1FBD8520728BF30C148BF0B60704739
:100160001FB51FBD10B510BD00F08AF81146FFF78E
:10017000F7FF01F023F800F0A8F803B4FFF7F2FF4F
:1001800003BC00F0AFF80000094880470948004769
:10019000FEE7FEE7FEE7FEE7FEE7FEE7FEE7FEE737
:1001A000FEE7FEE704480549054A064B7047000094
:1001B0007D100008ED00000810010020100700204D
:1001C000100300201003002010B5203AC0F00B806F
:1001D000B1E81850203AA0E81850B1E81850A0E84B
:1001E0001850BFF4F5AF5FEA027C24BFB1E81850A5
:1001F000A0E8185044BF18C918C0BDE810405FEA15
:10020000827C24BF51F8043B40F8043B08BF704790
:10021000D20728BF31F8023B48BF11F8012B28BF95
:1002200020F8023B48BF00F8012B70474FF0000256
:1002300000B5134694469646203922BFA0E80C50DC
:10024000A0E80C50B1F12001BFF4F7AF090728BFB7
:10025000A0E80C5048BF0CC05DF804EB890028BF33
:1002600040F8042B08BF704748BF20F8022B11F05C
:10027000804F18BF00F8012B7047704770477047D8
:10028000754600F02BF8AE4605006946534620F04F
:100290000700854618B020B5FFF784FFBDE8204071
:1002A0004FF000064FF000074FF000084FF0000B32
:1002B00021F00701AC46ACE8C009ACE8C009ACE8E5
:1002C000C009ACE8C0098D46704710B50446AFF3CD
:1002D00000802046BDE81040FFF74FBF0048704740
:1002E000AC00002001491820ABBEFEE7260002004A
:1002F0007047FEE770474FF4005000F015B800005B
:1003000070B5044600F016F90546601C02D004489A
:100310000078044400F00EF9401BA042FAD370BDEF
:100320001400002070470000044910B50A6802421A
:1003300002D00860FFF7F6FF10BD00001404014072
:100340002DE9F84FDFF8B891002409F1040A0AF109
:10035000040B23460F270BF1040EC9E00125A5402D
:100360002A40AA427DD1674ED1F804C0ACEB060802
:10037000B44532D014DCBCF1030F3AD009DCBCF137
:10038000000F2AD0BCF1010F1CD0BCF1020F31D1FB
:100390001DE0BCF1110F17D0BCF1120F2AD119E0EA
:1003A000B8F5881F19D006DCB8F5803F15D0B8F530
:1003B000801F1FD111E0B8F5001F0ED0B8F5041F43
:1003C00018D10AE0CB6815E0CB681B1D12E0CB68A2
:1003D00008330FE0CB680C330CE08B682BB1012B9A
:1003E0004FF0080303D0456104E0042302E00561F7
:1003F00000E00023FF2A01D8064601E000F10406D0
:100400004FEA840501D9A5F12005D6F8008007FA46
:1004100005FC28EA0C0803FA05F548EA0508C6F8C1
:1004200000804D68ED0062D5374DAE6946F001069B
:10043000AE61AD6924F0030605F001050095334D6A
:1004400006EB050CDCF80850A607360F07FA06F88D
:1004500025EA0805DFF8B880404503D14FF00008D1
:1004600017E044E0DFF8AC80404502D14FF00108CE
:100470000FE0DFF8A480404502D14FF0020808E009
:10048000DFF89880404502D14FF0030801E04FF0BB
:10049000040808FA06F848EA0508CCF808804D6810
:1004A000D9F80060ED034D4601D5164300E09643B0
:1004B0002E604D68DAF80060AD03554601D516434D
:1004C00000E096432E604D68DBF80060ED025D466B
:1004D00001D5164300E096432E604D68DEF80060BB
:1004E000AD02754601D5164300E096432E60641CAC
:1004F0000D682A46E5407FF431AFBDE8F88F000073
:1005000000040140000011100010024000000140F2
:1005100000080140000C014000100140001401409F
:100520008068084000D0012070470AB1016170471F
:100530000904FBE7014880687047000014000020B0
:1005400002488168027811448160704714000020DD
:10055000074810B5016841F010010160032000F068
:1005600075F8002000F006F800F024F8002010BD17
:100570000020024070B50D4D04464FF47A71287882
:10058000B1FBF0F00A490968B1FBF0F000F0CCFAD9
:1005900048B9102C07D200222146501E00F036F830
:1005A00000206C6070BD012070BD000014000020B0
:1005B000200000200C4808B5816941F001018161EB
:1005C000816901F001010091C16941F08051C1616F
:1005D000C06900F0805000900448416821F0E0615B
:1005E00041F00071416008BD001002400000014070
:1005F000002809DB00F01F02012191404009800022
:1006000000F1E020C0F8001170470000F0B40E4B7C
:100610001B680C46C3F30223C3F10705042D00D960
:100620000425191D072901D2002300E0DB1E012645
:1006300006FA05F1491E214099409E40761E16405B
:100640003143F0BC00F066BD0CED00E0064900F05F
:10065000070208684FF6FF03184040EA0220034AE9
:1006600010430860704700000CED00E00000FA0540
:100670002DE9F0470F46050061D0434E306800F089
:100680000700B84209D2306820F0070038433060D4
:10069000306800F00700B84251D128683B4C810710
:1006A00012D5400703D5606840F4E06060602878A8
:1006B000000703D5606840F4605060606068A96816
:1006C00020F0F000084360602878C00728D06868F0
:1006D000012810D02168022810D0890700292EDABD
:1006E000616821F0030101436160FFF723FF804649
:1006F00041F288390DE021688903EFE78901EDE7D0
:10070000FFF718FFA0EB0801494502D90320BDE817
:10071000F0876068696800F00C00B0EB810FEFD1E2
:10072000306800F00700B8420BD9306820F00700AD
:1007300038433060306800F00700B84201D0012033
:10074000E5E72878400705D56068E96820F4E060AF
:10075000084360602878000706D56068296920F49E
:10076000605040EAC100606000F018F86168084A13
:10077000C1F30311515CC84006490860064800688F
:10078000FFF7F8FE0020C2E7002002400010024000
:1007900038130008200000201800002012A185B0A6
:1007A0000FC98DE80F0014A0144A00680490516826
:1007B000134801F00C03042B10D0082B0ED1C1F309
:1007C0008343C9031DF803000AD5516804AAC1F385
:1007D0004041515C0A4A5043B0FBF1F005B070470C
:1007E00008494843FAE70000020304050607080920
:1007F0000A0B0C0D0E0F1010010200000010024039
:1008000000127A0000093D002DE9F84F040070D075
:100810002078C04DC00749D06868C0F38100012826
:1008200007D06868C0F38100022809D16868C00356
:1008300006D52868800339D560680028E7D035E000
:100840006068B0F5803F0BD010B1B0F5A02F11D08B
:10085000286820F480302860286820F4802002E096
:10086000286840F480302860606890B1FFF762FE2D
:1008700006460AE0286840F480202860F0E700BFC0
:10088000FFF758FE801B642873D828688003F7D5CB
:100890000CE0FFF74FFE064605E000BFFFF74AFEFB
:1008A000801B6428F0D828688003F7D420789A4EFB
:1008B00080074FF001094FF0000839D5686810F043
:1008C0000C0F07D06868C0F38100022809D168685E
:1008D000C00306D42868800714D52069012808D1F0
:1008E00010E02069B0B1C6F80090FFF723FE07467C
:1008F00005E00AE1FFF71EFEC01B0228C4D82868E5
:100900008007F7D52868616920F0F80040EAC10047
:1009100028600DE0C6F80080FFF70CFE074604E0F3
:10092000FFF708FEC01B022823D828688007F7D4E9
:10093000207800072CD57948A169D9B1C0F800907A
:10094000FFF7F8FD074604E0FFF7F4FDC01B02289F
:100950000FD8686A8007F7D571484FF4FA510068DC
:10096000B0FBF1F0009000BF0098411E0091FAD258
:100970000EE080E0C0F80080FFF7DCFD074604E0F1
:10098000FFF7D8FDC01B022875D8686A8007F7D426
:100990002078400760D5E8690027C00008D4E869DE
:1009A00040F08050E861E869012700F08050009035
:1009B0005C480168C90513D40168834641F480711D
:1009C0000160FFF7B7FD824606E000BFFFF7B2FD0A
:1009D000A0EB0A0064284ED8DBF80000C005F5D56E
:1009E000E06801280AD008B1052813D0286A20F051
:1009F00001002862286A20F0040002E0286A40F022
:100A000001002862E06841F2883B98B1FFF792FD4F
:100A100082460BE0286A40F004002862EEE700BF3F
:100A2000FFF788FDA0EB0A0159455AD8286A8007CC
:100A3000F6D50CE0FFF77EFD824605E0FFF77AFD74
:100A4000A0EB0A0159454CD8286A8007F6D41FB19B
:100A5000E86920F08050E861E06988B36968C1F313
:100A60008101022944D00228C6F8608004D0FFF733
:100A700061FD044638E034E0FFF75CFD074604E022
:100A8000FFF758FDC01B02282BD828688001F7D437
:100A9000206AB0F5803F05D16868A16820F4003075
:100AA00008436860D4E908010843696821F47411B7
:100AB00008436860C6F86090FFF73CFD044606E016
:100AC00025E000BFFFF736FD001B022809D8286883
:100AD0008001F7D51BE000BFFFF72CFD001B0228AB
:100AE00002D90320BDE8F88F28688001F4D40EE015
:100AF0000128F7D06868226A00F48031914204D15D
:100B0000616A00F47010884201D00120EAE70020F9
:100B1000E8E7000000100240000042428004424228
:100B2000200000200070004010B5401EB0F1807F12
:100B300001D3012010BD4FF0E02460610F21601748
:100B400000F0E8FA0020A06107202061002010BD1D
:100B50007047704770B590F83C20012A26D00124D8
:100B600080F83C40022280F83D2003685A689D6866
:100B700022F070060A6832435A600D4B02689A42AE
:100B800008D0B2F1804F05D00A4B9A4202D00A4BEE
:100B90009A4204D1496825F080031943916080F896
:100BA0003D40002180F83C10084670BD022070BD19
:100BB000002C014000040040000800402DE9F041F5
:100BC0000D46040003D094F83D0018B108E0012060
:100BD000BDE8F081002084F83C00204600F040F899
:100BE000022084F83D002068816844F207029143A6
:100BF0008160211D206800F049FA2268906891699F
:100C0000166A2B68AF69034340F20330814341EA1F
:100C10000721A868EF6908434FF6FC418843E9685B
:100C200040EA0720014328692F6A000140EA0730A3
:100C3000084369686D6926F0220646EA05152943CE
:100C400093602268906154F8460B0162012004F819
:100C50001F09E0752076E0762077A0750020B7E7C1
:100C600000B585B0002100910191029103910068C7
:100C7000B0F1804F1ED11048C16941F00101C1613E
:100C8000C16901F001010491816941F004018161B0
:100C90008069694600F00400049003200090074832
:100CA000FFF74EFB002211461C20FFF7AFFC1C2073
:100CB000FFF79EFC05B000BD001002400008014097
:100CC00070B590F83E60044690F83F5090F842307E
:100CD00090F84320022021B104290ED0012E1BD10F
:100CE00014E0012E18D1012B16D184F83E0084F8AF
:100CF000420001220021206820E0012D0CD1012AB0
:100D00000AD184F83F0084F8430014E0012D03D198
:100D1000012B01D1012A01D0012070BD84F83E00D1
:100D200084F83F0084F8420084F843000122002147
:100D3000206800F0E1F901220421206800F0DCF9CC
:100D40002068016841F001010160002070BD70471A
:100D500070B50446006801694FF00005C943890772
:100D600015D4C168C943890711D4E91E0161012066
:100D70002077206880698007204602D0FFF7E7FFD0
:100D800004E000F098F8204600F096F825772068F7
:100D90000169C943490717D4C168C943490713D436
:100DA0006FF004010161022020772068806910F44F
:100DB000407F204602D0FFF7CAFF04E000F07BF836
:100DC000204600F079F8257720680169C9430907B2
:100DD00016D4C168C943090712D46FF00801016134
:100DE000042020772068C0698007204602D0FFF7E2
:100DF000AEFF04E000F05FF8204600F05DF82577D4
:100E000020680169C943C90617D4C168C943C90626
:100E100013D46FF010010161082020772068C069A9
:100E200010F4407F204602D0FFF791FF04E000F06D
:100E300042F8204600F040F8257720680169C94350
:100E4000C90708D1C168C943C90704D1891E016116
:100E5000204600F032F820680169C943090609D428
:100E6000C168C943090605D46FF0800101612046BD
:100E7000FFF76EFE20680169C943490609D4C168BD
:100E8000C943490605D46FF040010161204600F0D6
:100E900015F820680169C94389060BD4C168C943A4
:100EA000890607D46FF0200101612046BDE870403B
:100EB000FFF74FBE70BD7047704770477047FEE741
:100EC0002DE9F04186B00024344800940194029446
:100ED0000394816941F010018161816901F0100181
:100EE0000491816941F020018161816901F0200153
:100EF0000491816941F004018161816901F004017B
:100F00000491816941F0080181618069244F00F0FA
:100F1000080040F2FF350490002229463846FFF7CA
:100F200004FBDFF88080002220214046FFF7FDFA15
:100F3000781400901C48CDE9010469463846FFF753
:100F4000FFF90126CDE90056022569463846CDE96C
:100F50000245FFF7F5F90C20CDE90005694640464A
:100F60000395FFF7EDF92020CDE9000669464046DC
:100F7000CDE90245FFF7E4F968028DE851006946C2
:100F80004046FFF7DDF9002211462820FFF73EFB1F
:100F90002820FFF72DFB06B0BDE8F08100100240CD
:100FA00000100140000801400000211010B58CB075
:100FB00024216846FFF73AF90024154809944FF0B8
:100FC00080410A94C0E900146321C0E90241046130
:100FD00084610320CDE9000402AB012008210A222C
:100FE00083E8170006AB83E8070069460848FFF767
:100FF000E5FD08B172B6FEE7099409A904480A9410
:10100000FFF7A8FD002801D072B6FEE70CB010BDB6
:1010100064000020FEE7FEE770477047FFF790BAD4
:1010200030B58FB028216846FFF700F914210AA8CF
:10103000FFF7FCF802250120049000951020059090
:1010400000244FF46010CDE9084007956846FFF78B
:10105000DBFB08B172B6FEE70F20CDE90A054FF4BD
:101060008060CDE90C4002210AA80E94FFF700FB36
:10107000002801D072B6FEE70FB030BD7047000007
:101080000148FFF765BE000064000020F0B502686B
:10109000164B174C174D4FF08047984205D0B84279
:1010A00003D0A04201D0A84203D122F070064A68C2
:1010B0003243984205D0B84203D0A04201D0A842A2
:1010C00003D122F44074CA6822434C6922F08002A2
:1010D000224302608A68C2620A688262984201D131
:1010E0000969016301214161F0BD0000002C01404C
:1010F000000400400008004010B501F01F0301216A
:10110000046A99408C430462016A9A401143016267
:1011100010BDFEE70907090E002804DB00F1E020FE
:1011200080F80014704700F00F0000F1E02080F814
:10113000141D704730B58BB0044628221D496846FF
:10114000FFF742F80A2194FBF1F294FBF1F001FB66
:1011500012435DF820105DF82300174C002200BFF9
:1011600001EBD1756B1025F00105491B44F82210E5
:101170001946052A17D0521C052AF1DD0E4C002114
:1011800014F1200400EBD0735A1023F00103C01AAD
:1011900044F821001046052908D0491C0529F1DD35
:1011A0000BB0002030BD04498B61E7E702482030D6
:1011B0008261F5E71013000824000020FFF7C8F94A
:1011C000FFF72EFFFFF77CFEFFF7F0FE3C211548EE
:1011D000FFF776FDDFF85080124E144C4FF4806715
:1011E000002539464046FFF79BF908B9306845624B
:1011F0003068406A2061FFF79DFFE56000F018F855
:10120000E068401CE0600328F8DBA068401CA06098
:101210001428E6DB208A6080A188411A2180A08002
:10122000A560DEE764000020000801400000002007
:101230002DE9F041344D4FF48076002231462846A6
:10124000FFF773F90122570239462846FFF76DF977
:101250002E4C012128462278FFF767F922790221D6
:101260002846FFF762F9227A04212846FFF75DF944
:10127000227B08212846FFF758F9227C10212846B6
:10128000FFF753F9227D20212846FFF74EF9227EF1
:1012900040212846FFF749F90220FFF731F80022E4
:1012A00039462846FFF741F9012231462846FFF723
:1012B0003CF92034012122782846FFF736F92279BB
:1012C00002212846FFF731F9227A04212846FFF748
:1012D0002CF9227B08212846FFF727F9227C1021D0
:1012E0002846FFF722F9227D20212846FFF71DF925
:1012F000227E40212846FFF718F90220FFF700F868
:101300000020BDE8F0810000001001402400002012
:1013100040000000790000002400000030000000C0
:101320001900000012000000030000007800000017
:101330000000000018000000000000000000000095
:1013400001020304060708096813000800000020D2
:1013500024000000280100088C130008240000204D
:10136000EC0600004401000800000000000000003E
:10137000000000000000000000000000010000006C
:0C13800010000000000000000024F40039
:04000005080000ED02
:00000001FF
